:020000020000FC
:0200000003C03B
:1000060015C0B89AC09803E003BF02E009BF30EC00
:1000160078940000FECFCC24CA94F1F7089520E42A
:10002600B22E2227F8DFBA94E9F7089558B361E0B3
:10003600562758BB07D04FEF431BC09B42BFC09902
:1000460032BF189511FF18D011FD0FD012FD05D043
:10005600089526EED22E2227089522E012271B7F2E
:100066000895089533273D290895D394D9F7332762
:100076003FEF24E012270895DA94A1F724E012272F
:020086000895DB
:00000001FF
