:020000020000FC
:0200000003C03B
:1000060017C0B89AC09803E003BF02E009BF21D029
:1000160025D030EC78940000FECFCC24CA94F1F7BA
:10002600089520E1B22E2227F8DFBA94E9F7089561
:1000360058B361E0562758BB0ED04FEF332711FF58
:1000460020D011FD26D0431BC09B42BFC09932BFB2
:100056001895EE240895EA9429F408952FEFF22EC8
:1000660022270895FA9409F40895DA9429F4089554
:1000760026EED22E2227089522E01227F9DF0895D0
:1000860008953FEF2CE077277D29371B320F77271E
:1000960008952CE077277D29720F372B772708954F
:00000001FF
